:040000000200833245
:01000B0032C2
:0100130032BA
:01001B0032B2
:0100230032AA
:01002B0032A2
:01003300329A
:01003B003292
:01004300328A
:01004B003282
:01005300327A
:01005B003272
:01006300326A
:01006B003262
:01007300325A
:03007B00021292DC
:0300DC0002007EA1
:05007E00120E1080FECF
:1000DF0085822D7B00E52D75F017A4FCADF0240073
:1000EF00FEED34F0FF74062EFEE43FFF7800C3E808
:1000FF00952C5016E82EF582E43FF583E0F9C3EB1B
:10010F009940028B0189030880E4C284758200C084
:10011F0003C004C005121067D005D004D00330010E
:10012F005E8B067F00A8287900EEC398FEEF99FF3B
:10013F00C3E49E74808FF063F08095F05007EBC39B
:10014F009528FE80027E008E2EEC2400FFED34F009
:10015F00FA74162FF582E43AF583E0FAFF7E00C3B6
:10016F0098F8EE99F9C3E498748089F063F080955C
:10017F00F05007EAC39528FA80027A0002022BC0DA
:10018F0004C0057E00AF287800EBC39FF9EE98A25C
:10019F00E713C913C9A2E713C913C9FCC3E49974C0
:1001AF00808CF063F08095F0D005D0045015EBC330
:1001BF009FFBEE98A2E713CB13CBA2E713CB13CB86
:1001CF00FE80047B007E008B2EEC2400FCED34F0CF
:1001DF00FD74162CF582E43DF583E0FB7C00C39F94
:1001EF00FDEC98A2E713CD13CDA2E713CD13CDFEEF
:1001FF00C3E49D74808EF063F08095F05018EBC3CC
:10020F009FFFEC98F88F03A2E713CB13CBA2E71352
:10021F00CB13CBFC80047B007C008B027B00BB06E6
:10022F000040030202EA7405C39BF582852D08C0C6
:10023F0002C00312103AD003D002EBC40354F8FCEF
:10024F00E52EC39CFC8B057E000DBD00010EEEC498
:10025F000354F8CDC403CD6DCD54F8CD6DFEAF2E44
:10026F007800C3EF9DE864808EF063F08095F040D6
:10027F00027C087408C39CF5F005F074FF8002251A
:10028F00E0D5F0FBFC8B057E000DBD00010EEEC42A
:10029F000354F8CDC403CD6DCD54F8CD6DFE8A0750
:1002AF007800C3ED9FEE648088F063F08095F04096
:1002BF0019EB04C40354F8FDC39AF5F005F074016B
:1002CF00800225E0D5F0FBFD42048C82C002C00302
:1002DF00120FD3D003D0020B02022DD284227A0048
:1002EF00C2847401B5270280077402B527478024A2
:1002FF0075080075820612103A7B00BB840040031C
:10030F0002038CEB901C8A93F582C003120FD3D09B
:10031F00030B80E775080075820612103A7B00BB4D
:10032F0084005059EB901DAB93F582C003120FD38D
:10033F00D0030B80EA750E0AE4F50F852282852320
:10034F0083C002121569E5828583F0D00245F06003
:10035F00027A19750800758206C00212103AD0028F
:10036F007B00BB84005016EA2B901D0E93F582C0C4
:10037F0002C003120FD3D003D0020B80E5D2842228
:10038F00C2847401B52702800B7402B527030204DF
:10039F001F02047575081275820712103AE52224A0
:1003AF00FEFAE52334FFFBC002C003742FC0E074D4
:1003BF001EC0E07480C0E0121629E58124FBF58190
:1003CF0075083A75820712103AC022C023742FC0E5
:1003DF00E0741EC0E07480C0E0121629E58124FB92
:1003EF00F58175086275820712103A74022522FA98
:1003FF00E43523FBC002C003742FC0E0741EC0E0BD
:10040F007480C0E0121629E58124FBF5810204EE09
:10041F0075080D75820712103A741E2522FAE435FD
:10042F0023FB740A2522FCE43523FDE52224F6FE86
:10043F00E52334FFFFE52224E2F8E52334FFF9C07A
:10044F0002C003C004C005C006C007C000C00174CD
:10045F0032C0E0741EC0E07480C0E0121629E5813E
:10046F0024F5F581807975080875820712103AE531
:10047F002224F6FAE52334FFFBC002C003742FC019
:10048F00E0741EC0E07480C0E0121629E58124FBE1
:10049F00F58175083A75820712103AC022C023748D
:1004AF002FC0E0741EC0E07480C0E0121629E581F1
:1004BF0024FBF58175086C75820712103A740A25B2
:1004CF0022FAE43523FBC002C003742FC0E0741E70
:1004DF00C0E07480C0E0121629E58124FBF581E5A8
:1004EF002C24FE501E75087E75820712103A744137
:1004FF00C0E0741EC0E07480C0E01216291581158B
:10050F00811581D2842290DF077412F090DF08E406
:10051F00F090DF17E044C0F090DF1C74EAF090DF3A
:10052F001D742AF090DF1EE4F090DF1F741FF0900F
:10053F00DF237488F090DF247431F090DF25740985
:10054F00F090DF14E4F0227401B5270280077402E3
:10055F00B52710800790DF0C74ECF02290DF0C743D
:10056F000CF02290DF0C746CF022AA82AB83ACF0FB
:10057F00FDC002C003C004C005121492AE82AF8347
:10058F00A8F0F9C006C007C000C0019030E975F0AF
:10059F0025743B121398AE82AF83A8F0F9E581243E
:1005AF00FCF5818E828F8388F0E91214A5AE82AF9D
:1005BF0083A8F0D005D004D003D00290DF09E8F073
:1005CF0090DF0AEFF07F007800790090DF0BEEF0FC
:1005DF00E526700FC3EA9480EB944BEC94F4ED9402
:1005EF001240227401B5260CC3EB94BAEC9445ED7E
:1005FF00941940117402B52613C3EB9474EC948BC9
:10060F00ED9432500790DF1D740AF02290DF1D74B5
:10061F002AF02212057975E10175E10290000212AC
:10062F000F75E52F75F017A4FAABF0EA2400FCEB79
:10063F0034F0FD90DF09E08C828D83F0EA2400FA1C
:10064F00EB34F0FB74012AFCE43BFD90DF0AE08CF5
:10065F00828D83F074022AFCE43BFD90DF0BE08C6B
:10066F00828D83F074032AFCE43BFD90DF1CE08C49
:10067F00828D83F074042AFCE43BFD90DF1DE08C37
:10068F00828D83F074052AFCE43BFD90DF1EE08C25
:10069F00828D83F074062AFCE43BFDE52B2CFCE4F1
:1006AF003DFD90DF3AE0FE6306808C828D83EEF095
:1006BF0074162AF582E43BF583E4F075E104228594
:1006CF0082308583317401B5270280077402B52704
:1006DF005080147543037544017533447534C375E5
:1006EF003500753600806F75432A7544147533884D
:1006FF0075342B75350A753600740A2530F582E48A
:10070F003531F583750E14E4F50F12136F85820ED4
:10071F0085830F9000141214DE858230858331801B
:10072F003575430D75440575331075340D753503E7
:10073F00753600853082853183A3A3750E05E4F5E8
:10074F000F12136F85820E85830F9000051214DE32
:10075F00858230858331C37467953074029531403B
:10076F00030208B5753202AC437D0074C2C39CFE10
:10077F0074039DFFE544C313F879002EF582E93F1A
:10078F00F583AE447F008E0E8F0FC004C005C006E8
:10079F00C007C000C001121C0BAA82AB83D001D0CE
:1007AF0000D007D0068E0E8F0F8A828B83C006C0B3
:1007BF0007C000C0011214DE858245858346D00133
:1007CF00D000D007D006D005D00474ED2CF582747C
:1007DF00023DF5838E0E8F0FC004C005C006C00703
:1007EF00C000C001121C0BAA82AB83D001D000D075
:1007FF0007D0068E0E8F0F8A828B83C006C007C06C
:10080F0000C0011214DE858247858348D001D000D5
:10081F00D007D006D005D00474192CF58274013D91
:10082F00F5838E0E8F0FC004C005C006C007C00031
:10083F00C001121C0BAA82AB83D001D000D007D00D
:10084F00068E0E8F0F8A828B83C006C007C000C032
:10085F00011214DEAA82AB83D001D000D007D006DC
:10086F00D005D00474E1C39CFC74019DFDE82CF508
:10087F0082E93DF5838E0E8F0FC002C003C006C004
:10088F0007121C0BAC82AD83D007D0068E0E8F0FD4
:10089F008C828D831214DEAC82AD83D003D0027EA6
:1008AF00007F01020A54C374719530740195314071
:1008BF000302098D753201854349754A0074E1C3FE
:1008CF009549F54B7401954AF54CE544C313F888E7
:1008DF004D754E00E54D254BF582E54E354CF583B4
:1008EF0085444B754C00854B0E854C0F121C0B85A8
:1008FF004B0E854C0F1214DE858245858346747A24
:10090F002549F5827401354AF583854B0E854C0FC9
:10091F00121C0B854B0E854C0F1214DE85824785FA
:10092F00834874ED2549F5827402354AF583854B6A
:10093F000E854C0F121C0B854B0E854C0F1214DEBF
:10094F00AA82AB837469C39549F87401954AF9E596
:10095F004D28F582E54E39F583854B0E854C0FC03A
:10096F0002C003121C0B854B0E854C0F1214DEAC0C
:10097F0082AD83D003D0027E027F00020A5475320B
:10098F000085434D754E007469C3954DF54B740149
:10099F00954EF54CE544C313F88849754A00E5496F
:1009AF00254BF582E54A354CF58385444B754C0054
:1009BF00854B0E854C0F121C0B854B0E854C0F1261
:1009CF0014DE8582458583467419254DF5827401A1
:1009DF00354EF583854B0E854C0F121C0B854B0E38
:1009EF00854C0F1214DE858247858348747A254D16
:1009FF00F5827401354EF583854B0E854C0F121C15
:100A0F000B854B0E854C0F1214DEAA82AB8374C27A
:100A1F00C3954DF87403954EF9E54928F582E54ADB
:100A2F0039F583854B0E854C0FC002C003121C0B8A
:100A3F00854B0E854C0F1214DEAC82AD83D003D0E4
:100A4F00027E017F02C3E5459530E546953150138F
:100A5F00854530854631E526B532248E328A308B76
:100A6F0031801CC3E5309547E531954850118547D6
:100A7F0030854831E526B532068F328C308D318581
:100A8F003226E4B52602801F7401B52634753B80EB
:100A9F00753CD2753D87753E16753F4075407A752A
:100AAF0041AB75421C8032753B40753CB8753DBFFC
:100ABF00753E10753F4075406C75418475421580C9
:100ACF0018753B40753CD5753DA4753E2C753F8020
:100ADF007540F475415675423985300E85310F7565
:100AEF00100075110090424075F00FE41214FBAE28
:100AFF0082AF83A8F0F98E378F388839893A752AF3
:100B0F0042C3E53F9537E5409538E5419539E542D4
:100B1F00953A406E747C252A4068852A2F85378246
:100B2F008538838539F0E53AC006C007C000C0019B
:100B3F00120622D001D000D007D006E5332537F5B5
:100B4F0037E5343538F538E5353539F539E53635A6
:100B5F003AF53A7A00C3EA952C5022E52A75F01738
:100B6F00A42400FB74F035F0FC74062BFBE43CFC72
:100B7F00EA2BF582E43CF583E4F00A80D8052A02DB
:100B8F000B10EEC39533F537EF9534F538E89535FF
:100B9F00F539E99536F53A752942C3E537953BE5C1
:100BAF0038953CE539953DE53A953E405CE5296041
:100BBF0058152985292F8537828538838539F0E5A2
:100BCF003A1206227A00C3EA952C5022E52975F0D5
:100BDF0017A42400FB74F035F0FC74062BFBE43CE7
:100BEF00FCEA2BF582E43CF583E4F00A80D8E53784
:100BFF00C39533F537E5389534F538E5399535F53F
:100C0F0039E53A9536F53A809185302285312312B0
:100C1F0010871202ED12038FC20085308285318357
:100C2F0022E58275F017A4FAABF0EA2400F582EB07
:100C3F0034F0F583E090DF09F0EA2400FAEB34F0AA
:100C4F00FB8A828B83A3E090DF0AF08A828B83A3D7
:100C5F00A3E090DF0BF08A828B83A3A3A3E090DF46
:100C6F001CF08A828B83A3A3A3A3E090DF1DF08ADD
:100C7F00828B83A3A3A3A3A3E090DF1EF022858220
:100C8F00271205568522828523830206CE30010462
:100C9F007A0480027A107401B5270280077402B5B6
:100CAF00270A80047B0180067B1480027B05C0022B
:100CBF00C00312126DAC82D003D002BC0103020E2E
:100CCF000DBC0203020D62BC03028062BC20030252
:100CDF000DD2BC3C03020D74BC3E03020D65BC413A
:100CEF0003020DA6BC4D03020DCFBC4E028033BCD8
:100CFF005003020DEDBC5103020D82BC5302805014
:100D0F00BC54028048BC5502801EBC5702800DBCEB
:100D1F005E03020D82BC8703020DA62275820002BC
:100D2F000C8D758201020C8D758202020C8DE4B55B
:100D3F00270280077401B5270E8006758201020C09
:100D4F008D758202020C8D758200020C8DD20122EC
:100D5F00C20122B201228B047D00EC2524F524ED83
:100D6F003525F525227C00E524C39BF524E5259C3C
:100D7F00F52522AB287C008A057E00ED2BFBEE3C8F
:100D8F00FCC3EB94D0EC648094805006EA2528FBDA
:100D9F0080027BD08B2822AB287C008A057E00EB5B
:100DAF00C39DFBEC9EFCC3E49B74808CF063F080CE
:100DBF0095F05007E528C39AFA80027A008A282214
:100DCF00B2002212126DAA82BA200280F612126DA0
:100DDF00AA82BA2001229000C8120F7580EF740109
:100DEF00B52C05752C108003752C01852282852367
:100DFF00831206CE852CF0E52B8485F02B22D202B0
:100E0F002275229375230375249375250375260286
:100E1F00752700C200C201C202752800752900752E
:100E2F002A83752B00752C01120F9C120FB0120F15
:100E3F00BD120FDD120515758200120C8D120C9C60
:100E4F00E522B52407E523B52502800F8524828589
:100E5F0025831206CE858224858325300242121007
:100E6F00879003E8120F75C284121028D2841212D1
:100E7F009BC2027A047B00900032C002C003120FA3
:100E8F0075121243AC82D003D002BC01028002D291
:100E9F00021ABAFF011BEA4B70DD2002D1020E10BD
:100EAF00AA29C3EA952A4003020F678A82C0021259
:100EBF000C30D00275E1028A82C0021200DFD0022C
:100ECF007401B527117B5E7C018B058C061BBBFF64
:100EDF00011CED4E70F3EA75F017A42400FB74F0BB
:100EEF0035F0FC74062BFDE43CFEE52B2DFDE43EB6
:100EFF00FE90DF3AE0FF6307808D828E83EFF03044
:100F0F00004474162BFDE43CFE74062BFFE43CF802
:100F1F00E52B2FFFE438F88D828E83E0F98F8288DE
:100F2F0083E0FFC3E99F501474062BFFE43CF8E500
:100F3F002B2FF582E438F583E0FF800289078D823D
:100F4F008E83EFF0800B74162BF582E43CF583E46F
:100F5F00F075E1040A020EB1052B852CF0E52B8408
:060F6F0085F02B020E4C80
:101C8A000E020E020E02FE020E020E020E020E02DA
:101C9A003E020E020E020E020E02FE020E020E029A
:101CAA000E020E023E020E020E020E020E02FE028A
:101CBA000E020E020E020E023E020E020E020E026A
:101CCA000E02FE020E020E020E020E023E020E026A
:101CDA000E020E020E02FE020E020E020E020E028A
:101CEA003E020E020E020E020E02FE020E020E024A
:101CFA000E020E023E020E020E020E020E02FE023A
:101D0A000E020E02020E020202020E020202020E6D
:101D1A0002020202FE020202020E020202020E0285
:101D2A000202020E020202020E020202023E020235
:101D3A0002020E020202020E020202020E02020255
:101D4A00020E02020202FE020202020E0202020255
:101D5A000E020202020E020202020E020202023EF9
:101D6A00020202020E020202020E020202020E0225
:101D7A000202020E02020202FE020202020E020225
:101D8A0002020E020202020E020202020E02020205
:101D9A00023E020202020E020202020E02020202C5
:101DAA000E0E02020E0202FE02020E02020E0202D1
:101DBA000E02020E0202FE02020E02020E02020EC1
:101DCA0002020E0202FE02020E02020E02020E02BD
:101DDA00020E0202FE02020E02020E02020E0202AD
:101DEA000E0202FE02020E02020E02020E02020E91
:101DFA000202FE02020E02020E02020E02020E028D
:101E0A0002FE02020E02020E02020E02020E02027C
:101E1A00FE02020E02020E02020E02020E0202FE70
:101E2A0002020E0202256400256420202564202077
:091E3A00256420202564005000FD
:100F7500AA82AB831ABAFF011BC3E49A74808BF073
:100F850063F08095F0500F7CB07D041CBCFF011D03
:100F9500EC4D70F780DE2253BEFBE5BE30E6FB5319
:100FA500C6B8E5C620E6FB43BE042243F32843FD4D
:100FB5001443FE0275FF182275860075C2AA75C511
:100FC50030228582C1E58630E1FB5386FD22D2823F
:100FD500020FC7C282020FC7C291900001120F759E
:100FE500D291C2847582E2120FD8758224120FD86D
:100FF500758281120FD8758260120FD87582E6123C
:101005000FD8758200120FD875822F120FD87582EE
:10101500A1120FD87582AF120FD87582A4120FD8FE
:10102500D284227582AC120FD87582AE120FD87594
:1010350082A5020FD8AA82740F5AF5F074B045F054
:10104500F582120FD8740F5508F582120FD8E508EE
:10105500C4540FFA740F5AF5F0741045F0F5820276
:101065000FD8AA82743F5AF5F0744045F0F5820214
:101075000FD8AA8274015AF5F074A645F0F58202DC
:101085000FD8C2847582001210677582001210771E
:101095007A00EA24F640217508008A82C0021210FF
:1010A5003AD0027B84758200C002C003120FD3D0F0
:1010B50003D002DBF00A80DAD28422AA8253027FAF
:1010C500C3EA648094A04053EA24E0C2D575F005D4
:1010D50030E704B2D5F404A430D50AF42401C5F0F0
:1010E500F43400C5F0FAABF07C00BC05005026EAEC
:1010F5002443FDEB341EFEEC2DF582E43EF583E43E
:1011050093F582C002C003C004120FD3D004D003EC
:0C111500D0020C80D5758200020FD3229E
:101E4300000000000000005E0000000E000E0028ED
:101E53007C287C2808547C542026100864002854CD
:101E630028400000000E0000003C42000000423CFD
:101E73000000005438540010107C101000806020C3
:101E83000010101010000060600000201008040013
:101E9300003C423C0000447E40004462524C00221D
:101EA3004A4A360018147E10002E4A4A32003C4A31
:101EB3004A300002621A0600344A4A34000C525275
:101EC3003C00006C6C0000806C2C00000010284467
:101ED30000282828280000442810000004520C0081
:101EE3003C425A1C007C12127C007E4A4A34003C5D
:101EF300424224007E42423C007E4A4A42007E0A1D
:101F03000A02003C425274007E08087E0000427EB2
:101F130042002040403E007E182442007E40404064
:101F2300007E0C0C7E007E0C307E003C42423C0066
:101F33007E12120C003C6242BC007E12324C002422
:101F43004A52240000027E02003E40403E001E60D2
:101F5300601E007E30307E006618186600000E702A
:101F63000E0062524A4600007E42420004081020DE
:101F7300000042427E000004020400404040400052
:101F8300000204000030482878007E4848300030C2
:101F9300484800003048487E003068581000107CE4
:101FA30012040050A8A898007E0808700000487A20
:101FB30040000040807A007E1028400000427E40AE
:101FC3000078101870007808087000304848300016
:101FD300F848483000304848F800780808100050A6
:101FE30058682800083E48400038404078000038D0
:101FF3004038007860607800483030480018A040CE
:102003003800486858480000083C420000007E0041
:062013000000423C080041
:1011210053FD3D53FE034380C24390FC7A007B0094
:10113100BB0800400302123FEBFC24F84057EB2BA5
:101141002B9011467302115E0211600211680211A7
:1011510070021178021180021188021190803643C9
:10116100FD025380FD802E43FE045390FB802643F5
:10117100FE085390F7801E43FE105390EF801643F4
:10118100FE205390DF800E43FE405390BF80064304
:10119100FE8053907FAD807E00EDF4FDEEF4FEED18
:1011A10030E1027C01AD907E00EDF4FDEEF4FEED48
:1011B10030E2027C02AD907E00EDF4FDEEF4FEED36
:1011C10030E3027C03AD907E00EDF4FDEEF4FEED24
:1011D10030E4027C04AD907E00EDF4FDEEF4FEED12
:1011E10030E5027C05AD907E00EDF4FDEEF4FEED00
:1011F10030E6027C06AD907E00EDF4FDEEF4FEEDEE
:1012010030E7027C07AD807E00EDF4FDEEF4FEEDEB
:1012110030E6027C08AD807E00EDF4FDEEF4FEEDDB
:1012210030E7027C09ECB50302800DEA75F00AA4EF
:101231002C90201993F582220B8B020211317582B9
:101241000022121121AA82C002121121AB82D00206
:10125100EAB503028007121121AA8280EA53FD3DFB
:1012610053FE034380C24390FC8A8222121243E55B
:1012710082FAB5090280048A0980027A008A8222F0
:1020190000004F4B4E4D015000000000594743202E
:102029003C2C033E000000515745525455490000CD
:10203900000041534446484A0000000000825A58B3
:1020490056420000000000008384858600000000DD
:1020590000000002875E00000000000000000A4C3A
:10128100538ABFC2EB758D40439A10438C02D2AF93
:1012910022538ABFC2EB53BEFC3285D50A85D40BDB
:1012A10090FBDC7407F090FBDD7407F090FBDE74BB
:1012B10007F090FBDF7407F090FBE07407F090FB00
:1012C100E17407F090FBE27404F090FBE3E4F0902A
:1012D100FBE4F090FBE574DFF090FBE674BEF09068
:1012E100FBE7E4F090FBE87407F090FBE97420F071
:1012F10090FBEA7442F053BEFBE5BE30E5FBAAC6A3
:1013010074F85AF5F0744145F0F5C6E5C630E6FBD0
:1013110043BE0412128185D50A85D40B43D6817A46
:10132100DC7BFB8B0290FBE3EAF07ADC7BFB90FB3E
:10133100E4EAF07AE37BFB8BD57AE37BFB8AD47515
:10134100D60143C70243BE07000000E5BE54037047
:101351000302135D75D701004387010053C7FD8563
:101361000AD5850BD475D601E5BE30E5FB227A108E
:10137100E4FBFCE58225E0F582E58333F583EB337D
:10138100FBEC33FCEB950EF5F0EC950F4006FCAB56
:10139100F0438201DADD2212143BBC00030215D7AF
:1013A100EF60FA30D502B2D1E583B4FF030215ED47
:1013B100E582B4FF030215ED258340072482400B2B
:1013C1000215D724831450030215EDF582EA8DF03E
:1013D100A4A8F0EA8EF0A428F8E435F0F9EB8DF03A
:1013E100A428E935F0F9E433CA8FF0A429F9EA35E4
:1013F100F0FAEBF88EF0A429F9EA35F0FAE433FBC0
:10140100EC8DF0A429F9EA35F0FAE43BFBE88FF022
:10141100A42AFAEB35F0FBE433CCFD8EF0A42AFAD2
:10142100EB35F0FBE43CFCED8FF0A42BFBEC35F04D
:10143100FC20E7031214690215B6AA82AB83A2F756
:101441003392D16002D2F7F582ACF0E58124F9F84C
:10145100E6FD08E6FE0886F008E6A2F73392D560BD
:0814610002D2F7F583AFF0227F
:0600B200E478FFF6D8FD22
:101469007804EC700DC9CACBFCE58224F8F582D862
:10147900F122782020E7111582C3E933F9EA33FA1A
:09148900EB33FBEC33FCD8EC2240
:100090007900E94400601B7A0090207478EB759336
:1000A000FBE493F2A308B800020593D9F4DAF275E1
:0200B00093FFBC
:10149200FCABF0AA83A982749EC2D1F582121469B0
:1014A2000215B67F9E1214CC30D1030215D7C3EFBA
:1014B2009582500974FFF5F0F583F58222790012C6
:1014C2001C4389828A838BF0EC22AA82AB83A2F727
:1014D2003392D16002D2F7F582ACF022E582850E1A
:1014E200F0A4C582C0F0850FF0A4D0F025F0C5832A
:1014F200850EF0A42583F58322AAF0FBE582850EF2
:10150200F0A4FCADF0E583850EF0A42DFDE435F0EA
:10151200FEE582850FF0A42DFDE5F03EFEE433FFEB
:10152200EA850EF0A42EFEE5F03FFFE583850FF07D
:10153200A42EFEE5F03FFFE5828510F0A42EFEE525
:10154200F03FFFEB850EF0A42FFFEA850FF0A42FEA
:10155200FFE5838510F0A42FFFE5828511F0A42F0B
:101562008EF08D838C8222E50E450F60467A01E56E
:101572000E25E0F50EE50F334012F50FE582950ECC
:10158200E583950F40030A80E6C3E50F13F50FE5E7
:101592000E13F50EC3E582950EF5F0E583950F4027
:1015A20005F58385F082C3E50F13F50FE50E13F5FC
:0415B2000EDAE1224A
:1000B8007800E84400600A79007593F0E4F309D801
:1000C800FC78EBE8440B600C790C90F000E4F0A3AA
:0400D800D8FCD9FA7D
:1015B600B98003EA13B34010EA2401FAE43BFBE4E2
:1015C6003CFC50047C800582BC000EBB000BBA00BC
:1015D60008E4F5F0F583F58222A2D1E582138CF0BA
:1015E60092F78B838A8222E4F583F58275F080F484
:1015F600A2D11322E4F583F58275F0C0747F22C070
:101606000D85810D1210C0D00D2285825E85835F07
:1016160085F060E4F55BF55CF55D850C619016057B
:101626000216E9C00D85810DE50D24FBF561E4F593
:101636005BF55CF55DE50D24FBF8865E08865F08C4
:1016460086609016051216E9D00D22AA82C051C0F6
:1016560052C0537468C0E07416C0E0C04FC0508AD0
:1016660082221581158115810559E4B55902055A5D
:1016760022AA8274302AFA24C6500A74072AFA303B
:1016860003034302208A82021651E582FAC4540FEC
:10169600F582C002121677D002740F5AF58202162E
:1016A6007785820EAB54AC55AD56AE57AF58750F15
:1016B60020EF2FFFEE235401FA4207EB2BFBEC330E
:1016C600FCED33FDEE33FEC3EF950E4008EFC395F8
:1016D6000EFF430301D50FD98B548C558D568E576B
:1016E6008F582285824F858350855B51855C528554
:1016F6005D53E4F559F55AAA5EAB5FAC608A828BFE
:10170600838CF0121BEFFD74012AF55EE43BF55F56
:101716008C60EDFA7003021BD0BA25028003021B0F
:10172600C8C204C205C206C207C208C209C20AC2AA
:101736000B7562007563007DFFAE5EAF5FAB608EBA
:10174600828F838BF0121BEFFAA3AE82AF838E5E7D
:101756008F5F8B60BA25078A8212165180998A0498
:10176600BC3000402A8A04EC24C64023BDFF13E5A2
:101776006375F00AA4FCEA24D02CF56370C1D20587
:1017860080BDED75F00AA4FCEA24D02CFD80B0BA29
:101796002E07BDFFAA7D0080A68A04BC6100400E0C
:1017A6008A04EC248540075302DFD2038002C20379
:1017B600BA20028055BA2B02804BBA2D028041BA5C
:1017C6004202804BBA43028050BA440302197ABAE5
:1017D6004603021990BA490302197ABA4C028034B8
:1017E600BA4F03021981BA5003021911BA53028083
:1017F6004CBA5503021986BA580302198B0219947A
:10180600D204021745D206021745D207021745D25F
:1018160009021745D20A02174530090AE56114F88C
:1018260088618602800FE56124FEF88861860308D8
:101836008604188B028A8212165102199DE56124CC
:10184600FDF88861860308860408860618188B54F6
:101856008C558E568554828555838556F0C0051263
:101866001BD7AB82AC83D005BDFF028B0520042CB1
:10187600C3EB95635026E563C39BF563AC638C06A7
:101886001C8C63EE6014758220C003C004C0051270
:101896001651D005D004D00380E48C638D048554A2
:1018A600828555838556F0121BEFFDFA602F8C0555
:1018B6001CC374808DF063F08095F050208A82C03E
:1018C60003C004121651D004D003AD54AE55AF5622
:1018D6000DBD00010E8D548E558F5680C120040318
:1018E60002199DC3EB9563400302199DE563C39BF3
:1018F600F563AC638C051C8C63ED700302199B7554
:101906008220C004121651D00480E9E56124FDF856
:101916008861860508860608860718188D548E5530
:101926008F56AD56BD800040047A438014BD6000DA
:1019360040047A50800BBD400040047A4980027A08
:10194600588A82C00212165175823A121651758251
:1019560030121651758278121651D002BA49028099
:101966000BBA500280068555821216908554821253
:1019760016908023D20875620A801C75620880174B
:1019860075620A8012756210800DD20B80098A82F8
:1019960012165180028C63300B5AE56124FCF888DC
:1019A6006186040886050886060886071818188CB6
:1019B600548D558E568F57755469755520755680BA
:1019C60085546585556685566774012565FFE4353A
:1019D60066FCAD678F548C558D568565828566830A
:1019E6008567F0121BEFFCFA70030216FD8A82125D
:1019F600165180CCE56270030216FD756417300936
:101A06002BE56114F88861E6FD3395E0FEFFFC8D59
:101A1600548E558F568C5720085EAC547D007E0040
:101A26007F008C548D558E568F57804C300A1FE59B
:101A36006124FCF8886186040886050886060886FF
:101A4600071818188C548D558E568F57802AE561C5
:101A560024FEF88861860408860518ED3395E0FEB5
:101A6600FF8C548D558E568F5720080CAC54AD55AF
:101A76007E007F008E568F57300822E55730E71BD1
:101A8600C3E49554FCE49555FDE49556FEE495575C
:101A9600FF8C548D558E568F578002C208D20CA8E3
:101AA600647C00755800856282C004C0001216A7C7
:101AB600D000D004200C0DE558C4FDE6FE4DF61806
:101AC60088648002A6580C8C03B20CE55445554533
:101AD60056455770CE88648C03E5637003756301C1
:101AE600200524200421EB04FCAD63C3EC9D5015B6
:101AF600758220C003C004C005121651D005D0045B
:101B0600D0031D80E68D6330080E75822DC003124A
:101B16001651D00315638023EB602030060E7582C4
:101B26002BC003121651D0031563800F30070C75B6
:101B36008220C003121651D0031563200424AC631F
:101B46008C051C8C63C3EB9D502B3005047D3080C7
:101B5600027D208D82C003C004121651D004D0032A
:101B660080DEC3EB95635008E563C39BF56380078E
:101B760075630080028C63A8648B041BEC6026B23C
:101B86000C200C0A08E6C4540FFC8C588007860407
:101B9600740F5CF558855882C003C000121677D0C2
:101BA60000D00380D42004030216FDAB638B041B14
:101BB600EC70030216FD758220C003121651D00385
:101BC60080EB8A821216510216FD855982855A8348
:011BD60022EC
:0B2069003C4E4F20464C4F41543E00BF
:101BD700AA82AB83121BEF6003A380F8C3E5829A46
:081BE700F582E5839BF58322E2
:0D008300758167121C86E582600302007E15
:101BEF0020F71430F6148883A88220F507E6A8831F
:101BFF0075830022E280F7E49322E022C2D5E583C9
:101C0F0030E70DD2D5E4C39582F582E49583F58351
:101C1F00E50F30E70DB2D5E4C3950EF50EE4950F41
:101C2F00F50F12136F30D50BE4C39582F582E4954F
:101C3F0083F583226040F82582500274FFF582E815
:101C4F0024F8501ECCCBCAF9E4CC24F85014CBCADC
:101C5F00F9E4CB24F8500BCAF9E4CA24F8500379FD
:101C6F00002224086010F8C3EC13FCEB13FBEA13FB
:0B1C7F00FAE913F9D8F1227582002267
:00000001FF
