:040000000200833245
:01000B0032C2
:0100130032BA
:01001B0032B2
:0100230032AA
:01002B0032A2
:01003300329A
:01003B003292
:01004300328A
:01004B003282
:01005300327A
:01005B003272
:01006300326A
:01006B003262
:01007300325A
:03007B00021179F6
:0300DC0002007EA1
:05007E00120D4980FE97
:1000DF0085822BC284758200120F4E30016CE52B86
:1000EF0075F008A42400FB74F035F0FC74072BF5B1
:1000FF0082E43CF583E0FDFE7F00A8287900EEC383
:10010F0098FEEF99FFC3E49E74808FF063F08095A3
:10011F00F05007EDC39528FD80027D0074062BF586
:10012F0082E43CF583E0FBFC7E00C398F8EE99F97E
:10013F00C3E498748089F063F08095F05007EBC3A7
:10014F009528FB80027B00020207E52B75F008A4BF
:10015F002400FC74F035F0FE74062CF582E43EF5B5
:10016F0083E0FF780085282C752D00EFC3952CF9BF
:10017F00E8952DA2E713C913C9A2E713C913C9FA4A
:10018F00C3E49974808AF063F08095F05018EFC340
:10019F00952CFFE8952DF8A2E713CF13CFA2E71305
:1001AF00CF13CFFA80047F007A008F0374072CF5EA
:1001BF0082E43EF583E0FA7C00C3952CFEEC952D8E
:1001CF00A2E713CE13CEA2E713CE13CEFFC3E49E46
:1001DF0074808FF063F08095F05017EAC3952CFA76
:1001EF00EC952DA2E713CA13CAA2E713CA13CAFCD0
:1001FF0080047A007C008A057A00BA060040030268
:10020F0002CD7405C39AF582852B08C002C003C0C6
:10021F0005120F2BD005D003D002EAC40354F8FC0B
:10022F00EBC39CFC8A067F000EBE00010FEFC403D8
:10023F0054F8CEC403CE6ECE54F8CE6EFF8B007939
:10024F0000C3E89EE964808FF063F08095F0400270
:10025F007C087408C39CF5F005F074FF800225E05C
:10026F00D5F0FBFC8A067F000EBE00010FEFC40322
:10027F0054F8CEC403CE6ECE54F8CE6EFF8D0079F7
:10028F0000C3EE98EF648089F063F08095F0401919
:10029F00EA04C40354F8FEC39DF5F005F074018021
:1002AF000225E0D5F0FBFE42048C82C002C003C0E1
:1002BF0005120EC4D005D003D0020A020209D2845F
:1002CF00227A00C2847401B5270280077402B52711
:1002DF00478024750800758206120F2B7B00BB84A4
:1002EF0000400302036FEB901D4793F582C003128A
:1002FF000EC4D0030B80E7750800758206120F2B12
:10030F007B00BB84005059EB901E6893F582C003AD
:10031F00120EC4D0030B80EA750E0AE4F50F852286
:10032F0082852383C002121450E5828583F0D002A8
:10033F0045F060027A19750800758206C002120F27
:10034F002BD0027B00BB84005016EA2B901DCB9361
:10035F00F582C002C003120EC4D003D0020B80E599
:10036F00D28422C2847401B52702800B7402B52790
:10037F0003020402020458750812758207120F2B2C
:10038F00E52224FEFAE52334FFFBC002C00374EC20
:10039F00C0E0741EC0E07480C0E0121510E5812427
:1003AF00FBF58175083A758207120F2BC022C02307
:1003BF0074ECC0E0741EC0E07480C0E0121510E54C
:1003CF008124FBF581750862758207120F2B740269
:1003DF002522FAE43523FBC002C00374ECC0E0749D
:1003EF001EC0E07480C0E0121510E58124FBF5817A
:1003FF000204D175080D758207120F2B741E25226A
:10040F00FAE43523FB740A2522FCE43523FDE522AB
:10041F0024F6FEE52334FFFFE52224E2F8E523343A
:10042F00FFF9C002C003C004C005C006C007C0006A
:10043F00C00174EFC0E0741EC0E07480C0E01215FC
:10044F0010E58124F5F5818079750808758207120A
:10045F000F2BE52224F6FAE52334FFFBC002C0037D
:10046F0074ECC0E0741EC0E07480C0E0121510E59B
:10047F008124FBF58175083A758207120F2BC02274
:10048F00C02374ECC0E0741EC0E07480C0E012158D
:10049F0010E58124FBF58175086C758207120F2B0F
:1004AF00740A2522FAE43523FBC002C00374ECC0A2
:1004BF00E0741EC0E07480C0E0121510E58124FBCB
:1004CF00F581D2842290DF077412F090DF08E4F0F8
:1004DF0090DF17E044C0F090DF1C74EAF090DF1D4E
:1004EF00742AF090DF1EE4F090DF1F741FF090DF8E
:1004FF00237488F090DF247431F090DF257409F0B5
:10050F0090DF14E4F0227401B5270280077402B55E
:10051F002710800790DF0C74ECF02290DF0C740C26
:10052F00F02290DF0C746CF022AA82AB83ACF0FD4A
:10053F00C002C003C004C005121379AE82AF83A8F6
:10054F00F0F9C006C007C000C0019030E975F02572
:10055F00743B12127FAE82AF83A8F0F9E58124FCC1
:10056F00F5818E828F8388F0E912138CAE82AF8370
:10057F00A8F0D005D004D003D00290DF09E8F090A6
:10058F00DF0AEFF07F007800790090DF0BEEF0E5E7
:10059F0026700FC3EA9480EB944BEC94F4ED941215
:1005AF0040227401B5260CC3EB94BAEC9445ED943C
:1005BF001940117402B52613C3EB9474EC948BEDB0
:1005CF009432500790DF1D740AF02290DF1D742AB9
:1005DF00F02212053875E10175E102900002120E4A
:1005EF0066E52E75F008A4FAABF0EA2400FCEB34B4
:1005FF00F0FD90DF09E08C828D83F0EA2400FAEBA6
:10060F0034F0FB74012AFCE43BFD90DF0AE08C829E
:10061F008D83F074022AFCE43BFD90DF0BE08C82AB
:10062F008D83F074032AFCE43BFD90DF1CE08C8289
:10063F008D83F074042AFCE43BFD90DF1DE08C8277
:10064F008D83F074052AFCE43BFD90DF1EE08C8265
:10065F008D83F074062AFCE43BFD90DF3AE0FE63E5
:10066F0006808C828D83EEF074072AF582E43BF5C9
:10067F0083E4F075E1042285822F8583307401B500
:10068F00270280077402B527508014753E03753F0B
:10069F00017532447533C3753400753500806F753D
:1006AF003E2A753F1475328875332B75340A7535AC
:1006BF0000740A252FF582E43530F583750E14E4A6
:1006CF00F50F12125685820E85830F9000141213A8
:1006DF00C585822F8583308035753E0D753F057535
:1006EF00321075330D753403753500852F828530C3
:1006FF0083A3A3750E05E4F50F12125685820E859E
:10070F00830F9000051213C585822F858330C37424
:10071F0067952F74029530400302086D753102AC56
:10072F003E7D0074C2C39CFE74039DFFE53FC3135F
:10073F00F879002EF582E93FF583AE3F7F008E0EEC
:10074F008F0FC004C005C006C007C000C001121A39
:10075F00F2AA82AB83D001D000D007D0068E0E8FC5
:10076F000F8A828B83C006C007C000C0011213C559
:10077F00858240858341D001D000D007D006D005B7
:10078F00D00474ED2CF58274023DF5838E0E8F0F1D
:10079F00C004C005C006C007C000C001121AF2AAEB
:1007AF0082AB83D001D000D007D0068E0E8F0F8A78
:1007BF00828B83C006C007C000C0011213C585829B
:1007CF0042858343D001D000D007D006D005D00496
:1007DF0074192CF58274013DF5838E0E8F0FC004B2
:1007EF00C005C006C007C000C001121AF2AA82AB32
:1007FF0083D001D000D007D0068E0E8F0F8A828B48
:10080F0083C006C007C000C0011213C5AA82AB8304
:10081F00D001D000D007D006D005D00474E1C39C1E
:10082F00FC74019DFDE82CF582E93DF5838E0E8F5A
:10083F000FC002C003C006C007121AF2AC82AD830C
:10084F00D007D0068E0E8F0F8C828D831213C5ACFE
:10085F0082AD83D003D0027E007F01020A0CC374E5
:10086F0071952F740195304003020945753101854B
:10087F003E4475450074E1C39544F54674019545B2
:10088F00F547E53FC313F88848754900E548254605
:10089F00F582E5493547F583853F4675470085461F
:1008AF000E85470F121AF285460E85470F1213C594
:1008BF00858240858341747A2544F58274013545DC
:1008CF00F58385460E85470F121AF285460E85472A
:1008DF000F1213C585824285834374ED2544F5823B
:1008EF0074023545F58385460E85470F121AF2853A
:1008FF00460E85470F1213C5AA82AB837469C39541
:10090F0044F874019545F9E54828F582E54939F52C
:10091F008385460E85470FC002C003121AF2854623
:10092F000E85470F1213C5AC82AD83D003D0027E64
:10093F00027F00020A0C753100853E48754900742C
:10094F0069C39548F54674019549F547E53FC313CB
:10095F00F88844754500E5442546F582E545354759
:10096F00F583853F4675470085460E85470F121A5A
:10097F00F285460E85470F1213C585824085834148
:10098F0074192548F58274013549F58385460E851E
:10099F00470F121AF285460E85470F1213C585822F
:1009AF0042858343747A2548F58274013549F5836E
:1009BF0085460E85470F121AF285460E85470F1290
:1009CF0013C5AA82AB8374C2C39548F874039549C3
:1009DF00F9E54428F582E54539F58385460E8547C7
:1009EF000FC002C003121AF285460E85470F12136D
:1009FF00C5AC82AD83D003D0027E017F02C3E54038
:100A0F00952FE5419530501385402F854130E526D0
:100A1F00B531248E318A2F8B30801CC3E52F954240
:100A2F00E5309543501185422F854330E526B5318A
:100A3F00068F318C2F8D30853126E4B52602801F2D
:100A4F007401B526347536807537D2753887753988
:100A5F0016753A40753B7A753CAB753D1C80327507
:100A6F0036407537B87538BF753910753A40753BD4
:100A7F006C753C84753D1580187536407537D57586
:100A8F0038A475392C753A80753BF4753C56753D15
:100A9F0039852F0E85300F7510007511009042406B
:100AAF0075F00FE41213E2AE82AF83A8F0F98E0255
:100ABF008F0388048905752A42C3E53A9AE53B9B63
:100ACF00E53C9CE53D9D4047747C252A4041852AA5
:100ADF002E8A828B838CF0EDC002C003C004C00548
:100AEF00C006C007C000C0011205E1D001D000D080
:100AFF0007D006D005D004D003D002E5322AFAE59C
:100B0F00333BFBE5343CFCE5353DFD052A80AAEE81
:100B1F00C39532FAEF9533FBE89534FCE99535FD33
:100B2F00752942C3EA9536EB9537EC9538ED953933
:100B3F004036E5296032152985292E8A828B838CD0
:100B4F00F0EDC002C003C004C0051205E1D005D00E
:100B5F0004D003D002EAC39532FAEB9533FBEC9540
:100B6F0034FCED9535FD80BB852F22853023120F88
:100B7F006E1202D0120372C200852F82853083223B
:100B8F00E58275F008A4FAABF0EA2400F582EB34A5
:100B9F00F0F583E090DF09F0EA2400FAEB34F0FB84
:100BAF008A828B83A3E090DF0AF08A828B83A3A3D0
:100BBF00E090DF0BF08A828B83A3A3A3E090DF1C6E
:100BCF00F08A828B83A3A3A3A3E090DF1DF08A8218
:100BDF008B83A3A3A3A3A3E090DF1EF0228582271C
:100BEF001205158522828523830206863001047A39
:100BFF000480027A107401B5270280077402B527AA
:100C0F000A80047B0180067B1480027B05C002C032
:100C1F0003121154AC82D003D002BC0103020D4663
:100C2F00BC0203020CBBBC0302805CBC3C03020C85
:100C3F00CDBC3E03020CBEBC4103020CFFBC4D03F6
:100C4F00020D28BC4E028033BC5003020D2BBC5149
:100C5F0003020CDBBC53028050BC54028048BC55CD
:100C6F0002801EBC5702800DBC5E03020CDBBC87EA
:100C7F0003020CFF22758200020BEC758201020B3E
:100C8F00EC758202020BECE4B5270280077401B504
:100C9F00270E8006758201020BEC758202020BECA7
:100CAF00758200020BECD20122C20122B201228B0B
:100CBF00047D00EC2524F524ED3525F525227C0057
:100CCF00E524C39BF524E5259CF52522AB287C0064
:100CDF008A057E00ED2BFBEE3CFCC3EB94D0EC645D
:100CEF008094805006EA2528FB80027BD08B282237
:100CFF00AB287C008A057E00EBC39DFBEC9EFCC3FA
:100D0F00E49B74808CF063F08095F05007E528C366
:100D1F009AFA80027A008A2822B20022121154AA6B
:100D2F0082BA500280F6121154AA82BA5001229050
:100D3F0000C8120E6680EFD202227522937523032C
:100D4F00752493752503752602752700C200C2010D
:100D5F00C202752800752900752A83120E8D120E96
:100D6F00A1120EAE120ECE1204D4758200120BEC2D
:100D7F00AA29C3EA952A4003020E168A82C00212DC
:100D8F000B8FD00275E1028A82C0021200DFD002FF
:100D9F007401B527117B5E7C018B058C061BBBFF95
:100DAF00011CED4E70F3EA75F008A42400FB74F0FB
:100DBF0035F0FC74062BFDE43CFE90DF3AE0FF6358
:100DCF0007808D828E83EFF030002A74072BFFE4AB
:100DDF003CF88D828E83E0F98F828883E0F54AC3D9
:100DEF009950088D828E83E0FD8002AD4A8F8288F4
:100DFF0083EDF0800B74072BF582E43CF583E4F070
:100E0F0075E1040A020D81120BFB30022B120F6EDB
:100E1F009003E8120E66C284120F19D284200203C7
:100E2F00020D491211829000C8120E66121154AAB7
:100E3F0082BA01E9C20280E5E522B52408E523B5AF
:100E4F002503020D7F8524828525831206868582E0
:070E5F0024858325020D7FAD
:101B7100000000000000005E0000000E000E0028C2
:101B81007C287C2808547C542026100864002854A2
:101B910028400000000E0000003C42000000423CD2
:101BA1000000005438540010107C10100080602098
:101BB10000101010100000606000002010080400E8
:101BC100003C423C0000447E40004462524C0022F2
:101BD1004A4A360018147E10002E4A4A32003C4A06
:101BE1004A300002621A0600344A4A34000C52524A
:101BF1003C00006C6C0000806C2C0000001028443C
:101C010000282828280000442810000004520C0055
:101C11003C425A1C007C12127C007E4A4A34003C31
:101C2100424224007E42423C007E4A4A42007E0AF1
:101C31000A02003C425274007E08087E0000427E87
:101C410042002040403E007E182442007E40404039
:101C5100007E0C0C7E007E0C307E003C42423C003B
:101C61007E12120C003C6242BC007E12324C0024F7
:101C71004A52240000027E02003E40403E001E60A7
:101C8100601E007E30307E006618186600000E70FF
:101C91000E0062524A4600007E42420004081020B3
:101CA100000042427E000004020400404040400027
:101CB100000204000030482878007E484830003097
:101CC100484800003048487E003068581000107CB9
:101CD10012040050A8A898007E0808700000487AF5
:101CE10040000040807A007E1028400000427E4083
:101CF10000781018700078080870003048483000EB
:101D0100F848483000304848F8007808081000507A
:101D110058682800083E48400038404078000038A4
:101D21004038007860607800483030480018A040A2
:101D31003800486858480000083C420000007E0016
:101D41000000423C08000E020E020E02FE020E02CC
:101D51000E020E020E023E020E020E020E020E02D2
:101D6100FE020E020E020E020E023E020E020E02D2
:101D71000E020E02FE020E020E020E020E023E02C2
:101D81000E020E020E020E02FE020E020E020E02E2
:101D91000E023E020E020E020E020E02FE020E02A2
:101DA1000E020E020E023E020E020E020E020E0282
:101DB100FE020E020E020E020E023E020E020E0282
:101DC1000E020E02FE020E020E02020E02020202BA
:101DD1000E020202020E02020202FE020202020EC2
:101DE100020202020E020202020E020202020E02AE
:101DF1000202023E020202020E020202020E02026E
:101E010002020E020202020E02020202FE0202029D
:101E1100020E020202020E020202020E020202027D
:101E21000E020202023E020202020E020202020E31
:101E3100020202020E020202020E02020202FE026D
:101E41000202020E020202020E020202020E02024D
:101E510002020E020202023E020202020E0202020D
:101E6100020E020202020E0E02020E0202FE020225
:101E71000E02020E02020E02020E0202FE02020E09
:101E810002020E02020E02020E0202FE02020E0205
:101E9100020E02020E02020E0202FE02020E0202F5
:101EA1000E02020E02020E0202FE02020E02020ED9
:101EB10002020E02020E0202FE02020E02020E02D5
:101EC100020E02020E0202FE02020E02020E0202C5
:101ED1000E02020E0202FE02020E02020E02020EA9
:101EE10002020E0202FE02020E02022564002564B5
:0D1EF1002020256420202564202025640089
:100E6600AA82AB831ABAFF011BC3E49A74808BF083
:100E760063F08095F0500F7CB07D041CBCFF011D13
:100E8600EC4D70F780DE2253BEFBE5BE30E6FB5329
:100E9600C6B8E5C620E6FB43BE042243F32843FD5D
:100EA6001443FE0275FF182275860075C2AA75C521
:100EB60030228582C1E58630E1FB5386FD22D2824F
:100EC600020EB8C282020EB8C291900001120E66DE
:100ED600D291C2847582E2120EC9758224120EC99D
:100EE600758281120EC9758260120EC97582E6126C
:100EF6000EC9758200120EC975822F120EC975822F
:100F0600A1120EC97582AF120EC97582A4120EC93E
:100F1600D284227582AC120EC97582AE120EC975C4
:100F260082A5020EC9AA8274B02AF582120EC9746D
:100F36000F5508F582120EC9E508C4540FFA740F4E
:100F46005A2410F582020EC9AA82743F5AF5F0742B
:100F56004045F0F582020EC9AA8274015AF5F07472
:100F6600A645F0F582020EC9C284758200120F4EA4
:100F7600758200120F5E7A00EA24F6402175080099
:100F86008A82C002120F2BD0027B84758200C002B7
:100F9600C003120EC4D003D002DBF00A80DAD2847A
:100FA60022AA8253027FC3EA648094A04053EA24B3
:100FB600E0C2D575F00530E704B2D5F404A430D507
:100FC6000AF42401C5F0F43400C5F0FAABF07C0055
:100FD600BC05005026EA24FEFDEB341EFEEC2DF582
:100FE60082E43EF583E493F582C002C003C0041296
:100FF6000EC4D004D003D0020C80D5758200020E38
:02100600C42202
:101EFE00000000000000005E0000000E000E002832
:101F0E007C287C2808547C54202610086400285411
:101F1E0028400000000E0000003C42000000423C41
:101F2E000000005438540010107C10100080602007
:101F3E000010101010000060600000201008040057
:101F4E00003C423C0000447E40004462524C002261
:101F5E004A4A360018147E10002E4A4A32003C4A75
:101F6E004A300002621A0600344A4A34000C5252B9
:101F7E003C00006C6C0000806C2C000000102844AB
:101F8E0000282828280000442810000004520C00C5
:101F9E003C425A1C007C12127C007E4A4A34003CA1
:101FAE00424224007E42423C007E4A4A42007E0A61
:101FBE000A02003C425274007E08087E0000427EF7
:101FCE0042002040403E007E182442007E404040A9
:101FDE00007E0C0C7E007E0C307E003C42423C00AB
:101FEE007E12120C003C6242BC007E12324C002467
:101FFE004A52240000027E02003E40403E001E6017
:10200E00601E007E30307E006618186600000E706E
:10201E000E0062524A4600007E4242000408102022
:10202E00000042427E000004020400404040400096
:10203E00000204000030482878007E484830003006
:10204E00484800003048487E003068581000107C28
:10205E0012040050A8A898007E0808700000487A64
:10206E0040000040807A007E1028400000427E40F2
:10207E00007810187000780808700030484830005A
:10208E00F848483000304848F800780808100050EA
:10209E0058682800083E4840003840407800003814
:1020AE004038007860607800483030480018A04012
:1020BE003800486858480000083C420000007E0086
:0620CE000000423C080086
:1010080053FD3D53FE034380C24390FC7A007B00AE
:10101800BB08004003021126EBFC24F84057EB2BD9
:101028002B90102D7302104502104702104F02102A
:101038005702105F02106702106F02107780364364
:10104800FD025380FD802E43FE045390FB8026430F
:10105800FE085390F7801E43FE105390EF8016430E
:10106800FE205390DF800E43FE405390BF8006431E
:10107800FE8053907FAD807E00EDF4FDEEF4FEED32
:1010880030E1027C01AD907E00EDF4FDEEF4FEED62
:1010980030E2027C02AD907E00EDF4FDEEF4FEED50
:1010A80030E3027C03AD907E00EDF4FDEEF4FEED3E
:1010B80030E4027C04AD907E00EDF4FDEEF4FEED2C
:1010C80030E5027C05AD907E00EDF4FDEEF4FEED1A
:1010D80030E6027C06AD907E00EDF4FDEEF4FEED08
:1010E80030E7027C07AD807E00EDF4FDEEF4FEED06
:1010F80030E6027C08AD807E00EDF4FDEEF4FEEDF6
:1011080030E7027C09ECB50302800DEA75F00AA409
:101118002C9020D493F582220B8B02021018758232
:101128000022121008AA82C002121008AB82D00254
:10113800EAB503028007121008AA8280EA53FD3D2F
:1011480053FE034380C24390FC8A822212112AE58F
:1011580082FAB5090280048A0980027A008A82220A
:1020D40000004F4B4E4D0150000000005947432073
:1020E4003C2C033E00000051574552545549000012
:1020F400000041534446484A0000000000825A58F8
:102104005642000000000000838485860000000021
:1021140000000002875E00000000000000000A4C7E
:10116800538ABFC2EB758D40439A10438C02D2AFAD
:1011780022538ABFC2EB53BEFC3285D50A85D40BF5
:1011880090F4207407F090F4217407F090F422741E
:1011980007F090F4237407F090F4247407F090F4A7
:1011A800257407F090F4267404F090F427E4F09086
:1011B800F428F090F42974DFF090F42A74BEF090CB
:1011C800F42BE4F090F42C7407F090F42D7420F0D4
:1011D80090F42E7442F053BEFBE5BE30E5FBAAC680
:1011E80074F85AF5F0744145F0F5C6E5C630E6FBEB
:1011F80043BE0412116885D50A85D40B43D6817A7B
:10120800207BF48B0290F427EAF07A207BF490F4A8
:1012180028EAF07A277BF48BD57A277BF48AD47571
:10122800D60143C70243BE07000000E5BE54037061
:101238000302124475D701004387010053C7FD8597
:101248000AD5850BD475D601E5BE30E5FB227A10A8
:10125800E4FBFCE58225E0F582E58333F583EB3397
:10126800FBEC33FCEB950EF5F0EC950F4006FCAB70
:10127800F0438201DADD22121322BC00030214BEFD
:10128800EF60FA30D502B2D1E583B4FF030214D47B
:10129800E582B4FF030214D4258340072482400B5F
:1012A8000214BE24831450030214D4F582EA8DF08C
:1012B800A4A8F0EA8EF0A428F8E435F0F9EB8DF054
:1012C800A428E935F0F9E433CA8FF0A429F9EA35FE
:1012D800F0FAEBF88EF0A429F9EA35F0FAE433FBDA
:1012E800EC8DF0A429F9EA35F0FAE43BFBE88FF03D
:1012F800A42AFAEB35F0FBE433CCFD8EF0A42AFAED
:10130800EB35F0FBE43CFCED8FF0A42BFBEC35F067
:10131800FC20E70312135002149DAA82AB83A2F7A4
:101328003392D16002D2F7F582ACF0E58124F9F866
:10133800E6FD08E6FE0886F008E6A2F73392D560D7
:0813480002D2F7F583AFF02299
:0600B200E478FFF6D8FD22
:101350007804EC700DC9CACBFCE58224F8F582D87C
:10136000F122782020E7111582C3E933F9EA33FA34
:09137000EB33FBEC33FCD8EC225A
:100090007900E94400601B7A0090212F782F759336
:1000A000F4E493F2A308B800020593D9F4DAF275E8
:0200B00093FFBC
:10137900FCABF0AA83A982749EC2D1F582121350E4
:1013890002149D7F9E1213B330D1030214BEC3EF22
:101399009582500974FFF5F0F583F58222790012E0
:1013A9001B2A89828A838BF0EC22AA82AB83A2F75B
:1013B9003392D16002D2F7F582ACF022E582850E34
:1013C900F0A4C582C0F0850FF0A4D0F025F0C58344
:1013D900850EF0A42583F58322AAF0FBE582850E0C
:1013E900F0A4FCADF0E583850EF0A42DFDE435F005
:1013F900FEE582850FF0A42DFDE5F03EFEE433FF06
:10140900EA850EF0A42EFEE5F03FFFE583850FF097
:10141900A42EFEE5F03FFFE5828510F0A42EFEE53F
:10142900F03FFFEB850EF0A42FFFEA850FF0A42F04
:10143900FFE5838510F0A42FFFE5828511F0A42F25
:101449008EF08D838C8222E50E450F60467A01E588
:101459000E25E0F50EE50F334012F50FE582950EE6
:10146900E583950F40030A80E6C3E50F13F50FE501
:101479000E13F50EC3E582950EF5F0E583950F4041
:1014890005F58385F082C3E50F13F50FE50E13F516
:041499000EDAE12264
:1000B8007800E84400600A79007593F0E4F309D801
:1000C800FC782FE84404600C790590F000E4F0A374
:0400D800D8FCD9FA7D
:10149D00B98003EA13B34010EA2401FAE43BFBE4FC
:1014AD003CFC50047C800582BC000EBB000BBA00D6
:1014BD0008E4F5F0F583F58222A2D1E582138CF0D4
:1014CD0092F78B838A8222E4F583F58275F080F49E
:1014DD00A2D11322E4F583F58275F0C0747F22C08A
:1014ED000D85810D120FA7D00D2285825A85835B44
:1014FD0085F05CE4F557F558F559850C5D9014ECC5
:10150D000215D0C00D85810DE50D24FBF55DE4F5CB
:10151D0057F558F559E50D24FBF8865A08865B08F2
:10152D00865C9014EC1215D0D00D22AA82C04DC04D
:10153D004EC04F744FC0E07415C0E0C04BC04C8A14
:10154D0082221581158115810555E4B55502055683
:10155D0022AA8274302AFA24C6500A74072AFA3055
:10156D0003034302208A82021538E582FAC4540F20
:10157D00F582C00212155ED002740F5AF582021563
:10158D005E85820EAB50AC51AD52AE53AF54750F5C
:10159D0020EF2FFFEE235401FA4207EB2BFBEC3328
:1015AD00FCED33FDEE33FEC3EF950E4008EFC39512
:1015BD000EFF430301D50FD98B508C518D528E5395
:1015CD008F542285824B85834C85574D85584E858A
:1015DD00594FE4F555F556AA5AAB5BAC5C8A828B34
:1015ED00838CF0121AD6FD74012AF55AE43BF55B93
:1015FD008C5CEDFA7003021AB7BA25028003021A49
:10160D00AFC204C205C206C207C208C209C20AC2DD
:10161D000B755E00755F007DFFAE5AAF5BAB5C8EE8
:10162D00828F838BF0121AD6FAA3AE82AF838E5AB5
:10163D008F5B8B5CBA25078A8212153880998A04D4
:10164D00BC3000402A8A04EC24C64023BDFF13E5BC
:10165D005F75F00AA4FCEA24D02CF55F70C1D205A9
:10166D0080BDED75F00AA4FCEA24D02CFD80B0BA43
:10167D002E07BDFFAA7D0080A68A04BC6100400E26
:10168D008A04EC248540075302DFD2038002C20393
:10169D00BA20028055BA2B02804BBA2D028041BA76
:1016AD004202804BBA43028050BA4403021861BA19
:1016BD004603021877BA4903021861BA4C02803406
:1016CD00BA4F03021868BA50030217F8BA530280D2
:1016DD004CBA550302186DBA580302187202187BE2
:1016ED00D20402162CD20602162CD20702162CD2C8
:1016FD000902162CD20A02162C30090AE55D14F8DF
:10170D00885D8602800FE55D24FEF8885D860308FE
:10171D008604188B028A82121538021884E55D241E
:10172D00FDF8885D860308860408860618188B5018
:10173D008C518E528550828551838552F0C0051291
:10174D001ABEAB82AC83D005BDFF028B0520042CE5
:10175D00C3EB955F5026E55FC39BF55FAC5F8C06D1
:10176D001C8C5FEE6014758220C003C004C005128E
:10177D001538D005D004D00380E48C5F8D048550DE
:10178D00828551838552F0121AD6FDFA602F8C0591
:10179D001CC374808DF063F08095F050208A82C058
:1017AD0003C004121538D004D003AD50AE51AF5262
:1017BD000DBD00010E8D508E518F5280C12004033E
:1017CD00021884C3EB955F4003021884E55FC39B49
:1017DD00F55FAC5F8C051C8C5FED70030218827594
:1017ED008220C004121538D00480E9E55D24FDF88F
:1017FD00885D860508860608860718188D508E5157
:10180D008F52E552FD247F50047A438014ED249FBE
:10181D0050047A50800BED24BF50047A4980027A2F
:10182D00588A82C00212153875823A12153875829F
:10183D0030121538758278121538D002BA490280E7
:10184D000BBA50028006855182121577855082128F
:10185D0015778023D208755E0A801C755E08801787
:10186D00755E0A8012755E10800DD20B80098A821A
:10187D0012153880028C5F300B5AE55D24FCF88818
:10188D005D86040886050886060886071818188CD4
:10189D00508D518E528F5375502475512175528034
:1018AD0085506185516285526374012561FFE43570
:1018BD0062FCAD638F508C518D5285618285628340
:1018CD008563F0121AD6FCFA70030215E48A8212AF
:1018DD00153880CCE55E70030215E475601730098C
:1018ED002BE55D14F8885DE6FD3395E0FEFFFC8D7C
:1018FD00508E518F528C5320085EAC507D007E006F
:10190D007F008C508D518E528F53804C300A1FE5C5
:10191D005D24FCF8885D8604088605088606088621
:10192D00071818188C508D518E528F53802AE55DF3
:10193D0024FEF8885D860408860518ED3395E0FED3
:10194D00FF8C508D518E528F5320080CAC50AD51E1
:10195D007E007F008E528F53300822E55330E71BF7
:10196D00C3E49550FCE49551FDE49552FEE4955386
:10197D00FF8C508D518E528F538002C208D20CA80D
:10198D00607C00755400855E82C004C00012158E07
:10199D00D000D004200C0DE554C4FDE6FE4DF61824
:1019AD0088608002A6540C8C03B20CE5504551455D
:1019BD0052455370CE88608C03E55F7003755F01EF
:1019CD00200524200421EB04FCAD5FC3EC9D5015D4
:1019DD00758220C003C004C005121538D005D0048F
:1019ED00D0031D80E68D5F30080E75822DC0031269
:1019FD001538D003155F8023EB602030060E7582FD
:101A0D002BC003121538D003155F800F30070C75EE
:101A1D008220C003121538D003155F200424AC5F5B
:101A2D008C051C8C5FC3EB9D502B3005047D3080E5
:101A3D00027D208D82C003C004121538D004D0035E
:101A4D0080DEC3EB955F5008E55FC39BF55F8007B4
:101A5D00755F0080028C5FA8608B041BEC6026B262
:101A6D000C200C0A08E6C4540FFC8C548007860425
:101A7D00740F5CF554855482C003C00012155ED0FE
:101A8D0000D00380D42004030215E4AB5F8B041B4C
:101A9D00EC70030215E4758220C003121538D003D3
:101AAD0080EB8A821215380215E48555828556839E
:011ABD002206
:0B2124003C4E4F20464C4F41543E0003
:101ABE00AA82AB83121AD66003A380F8C3E5829A7A
:081ACE00F582E5839BF58322FC
:0D008300758163121B6DE582600302007E33
:101AD60020F71430F6148883A88220F507E6A88339
:101AE60075830022E280F7E49322E022C2D5E583E3
:101AF60030E70DD2D5E4C39582F582E49583F5836C
:101B0600E50F30E70DB2D5E4C3950EF50EE4950F5B
:101B1600F50F12125630D50BE4C39582F582E49583
:101B260083F583226040F82582500274FFF582E82F
:101B360024F8501ECCCBCAF9E4CC24F85014CBCAF6
:101B4600F9E4CB24F8500BCAF9E4CA24F850037917
:101B5600002224086010F8C3EC13FCEB13FBEA1315
:0B1B6600FAE913F9D8F1227582002281
:00000001FF
